:100000000C9443030C9460030C9460030C94600301
:100010000C9460030C9460030C9460030C946003D4
:100020000C9460030C9460030C94F32D0C94DB2E61
:100030000C94A82D0C9460030C9460030C94600342
:100040000C9460030C9460030C9460030C946003A4
:100050000C9460030C94CF2D0C9460030C946003FB
:100060000C9460030C9460030C9460030C94600384
:100070000C9460030C9460030C9460030C94600374
:100080000C9460030C9460030C9460030C94600364
:100090000C9460030C9460030C9460030C94600354
:1000A0000C9460030C9460030C94600305010980B8
:1000B000A101850319012AB700150126B700950192
:1000C00075108100C0050C0901A101850419012AE0
:1000D000A002150126A002950175108100C005013E
:1000E0000906A1018506050719E029E71500250184
:1000F0009508750181020507190029EF15002501F2
:1001000095F075018102050819012905950575010C
:100110009102950175039101C00660FF0961A1017B
:100120000962150026FF00952075088102096315F4
:100130000026FF00952075089102C005010906A15F
:1001400001050719E029E7150025019508750181CA
:10015000029501750881010507190029FF15002680
:10016000FF0095067508810005081901290515008D
:100170002501950575019102950175039101C00056
:10018000000000000000000000000000000000006F
:10019000000000000000000000000000000000005F
:1001A0000000007E0F00D4FFFFFFC70000007800B2
:1001B000000000000000002A2B28000000000000C2
:1001C0000000000000000000000029000000002CDA
:1001D0001E3420212224342627252E362D37382779
:1001E0001E1F202122232425263333362E37381F85
:1001F0000405060708090A0B0C0D0E0F1011121347
:100200001415161718191A1B1C1D2F3130232D35E4
:100210000405060708090A0B0C0D0E0F1011121326
:100220001415161718191A1B1C1D2F3130354C09BF
:10023000025B00030100A0FA0904000001030101B0
:100240000009211101000122440007058103080073
:10025000010904010002030000000921110100014D
:100260002222000705820320000107050303200066
:10027000010904020001030000000921110100012D
:10028000226D000705840320000112010002000016
:10029000000814FF99990001010203011C03760074
:1002A000690061006C003A006600360034006300AB
:1002B000320062003300630000002003700075000C
:1002C000730068006900670075006D0061002F0011
:1002D0006900630067003400300000001403500020
:1002E0007500530068006900670075006D006100CB
:1002F000000004030904350014001A00080015006A
:1003000017001C0018000C001200130033002B0013
:1003100004001600070009000A0000000B000D0091
:100320000E000F002D00E0001D001B00060019004C
:1003300005000500110010003600370038000000ED
:10034000E3000000E2002C229041914228322A0072
:1003500000000000000029001E001F0020002100F6
:100360002200230024002500260027002E002B0059
:100370002F00300000004A004D00000050005100E6
:1003800052004F003400E0000000000000000000B8
:10039000000000004E004B00360037003100000026
:1003A000E3000000E2002C222252235228322A00CD
:1003B0000000000000003A003B003C003D003E0011
:1003C0003F004000410042004300440045002B0034
:1003D00004004A004D004E004B0000005000510048
:1003E00052004F003400E0001D001B000600190001
:1003F0000500050011001000360037003100000034
:10040000E3000000E2002C222152235228322A006D
:100410000000000000003A003B003C003D003E00B0
:100420003F004000410042004300440045002B00D3
:100430000000000000004E004B0000005000510082
:1004400052004F000000E00000000000000000002B
:10045000000000000000000000000000000000009C
:100460000100000001000100010001000100010085
:100470000000000000000100010023051E163416D4
:100480000000020002001F051E16341600000300C3
:10049000010024051E1634160000040002000905A0
:1004A0001E163416DB060500010025051E1634163F
:1004B0000000060002000B051E163416000007009F
:1004C000020021051E163416000008000100260552
:1004D0001E16341600001200020027051E163416E0
:1004E00000001300020029051E1634160000140037
:1004F00001002B051E163416000015000000000038
:10050000E406F90D0000FD377A585A000004E6D6DB
:10051000B4460200210116000000742FE5A3E00399
:100520002D013D5D003D8889C65436C3174FE4F365
:100530006E4FB1511E313B04992DC9C723EB68267C
:10054000CA6C0BEEE35AC28DBF592011F0F26AE972
:10055000D1DD899F9317F9D50ACD6AB7C59CCC35F3
:1005600000FE9CE13BD5A4497F6BC2CDB8410C7520
:10057000FB7D7EB3CA5698CE4DFA6F0E3D26D4B49D
:10058000BE52F004A1F780848460809567EE1DC0A0
:10059000A6A7F92FBD9C3A463C469EE97F2BA27147
:1005A000B5FF4D102C221CE4D7356C27ADDCE81FBD
:1005B00072FD65660938143D14E5F5F7455717A532
:1005C0000F9170776CA779A83A3B608471F4DE973D
:1005D000CDE699949BC7B10DF759586A864CDED089
:1005E000D96966E4EBD95C2ED332EFCBEA87880A6F
:1005F0007310D59576A370A75DFDF7318D37BF4D8C
:1006000085EC57B7BDDC9912007A17B55557E0D77E
:10061000283FB3945F71A9072C7C01078907CE613D
:100620002C7F84A202F283B5D013577C4AF555295A
:1006300010047B4A9EADA14C161202524278156BF3
:10064000877265B7E1E708F4CD0E31C1ED18A771E7
:100650004729E396A6C201B0E85AA16DC1C1E038AE
:10066000319400000000FBCFF4733C65128600015A
:10067000D902AE060000DED89D25B1C467FB02009A
:1006800000000004595A11241FBECFEFDAE0DEBF8C
:10069000CDBF11E0A0E0B1E0E8EEF0E602C00590C9
:1006A0000D92A83AB107D9F725E0A8EAB1E001C058
:1006B0001D92A133B207E1F70E9446270C94FA2F4E
:1006C0000C9400009C019A9581159F4118F5F32F19
:1006D000F270EE27832F8170732F74706627532F6B
:1006E0005870442734FF0CC08295807FEF2B09F0AF
:1006F0008062672B09F08064452B69F0806808955B
:10070000EF2B09F08260672B09F08460452B19F00C
:100710008860089580E00895CF93DF93EB010E94F5
:100720006203FE010995DF91CF910895282F9295DC
:100730009F70963099F060F4925F9F70923030F421
:10074000203FB1F038F481E0283E38F080E0089591
:100750009A5FF3CF81E0243FC9F7089591E0813F8C
:1007600009F090E081E0283E08F080E0892B0895B0
:1007700081E0089580930705089580930805089502
:1007800021E030E001C0220F8A95EAF78091080548
:10079000822B0E94BD03089521E030E0A90102C030
:1007A000440F551F8A95E2F7CA018095909108057C
:1007B00089230E94BD030895292F943090F58C3031
:1007C00080F590E03CE0239F800D911D1124282F9F
:1007D000277041E001C0440F2A95EAF723E096957F
:1007E00087952A95E1F7FC01EE0FFF1FE80FF91F2F
:1007F000E65EFC4F20E030E070E05191DF01CB017C
:10080000022E02C0969587950A94E2F78170819531
:100810008527842385278E932F5F3F4F2330310513
:1008200061F70895292F943078F58C3068F590E0C1
:100830003CE0239F800D911D1124682F677023E0F9
:10084000969587952A95E1F7FC01EE0FFF1FE80FBB
:10085000F91FE65EFC4F40E050E080E0219130E07F
:10086000062E02C0369527950A94E2F721703327A9
:10087000042E01C0220F0A94EAF7822B4F5F5F4FCC
:100880004330510559F7089580E008959091080587
:1008900021E030E0F90101C0EE0F8A95EAF7D901B5
:1008A00002C0AA0FBB1F6A95E2F7EA2B01C0220F14
:1008B0004A95EAF7892F8E23E81305C0892F822BEA
:1008C0000E94BD0308952095822F8923F9CF80913E
:1008D000C8029091C702981301C008958F5F877076
:1008E000FACF909155048095892380935504282F41
:1008F0002770211111C0891779F090912E0592FF70
:100900000BC08695869586950E94CC03109255045F
:100910001092570410925604089590915204982B07
:10092000909352040895982F9095809152048923B2
:1009300080935204089580915104811531F01092F2
:1009400051041092500410924F0408959C01803E6F
:10095000910509F448C0D8F48133910509F47DC0AC
:1009600048F48932910509F46DC08A9709F47CC076
:10097000C90108958933910551F18238910539F102
:10098000C597B1F780912D0585FFF2CF29C0843E30
:10099000910509F447C048F4823E910599F1833EE0
:1009A0009105A9F121EE30E0E3CF863E910509F4EF
:1009B00044C0873E9105E1F680912D0583FD61C01D
:1009C00090912E0591FF2BC024EE30E0D1CF809185
:1009D0002D058370811152C080912E0583FFC8CFF1
:1009E00029E230E0C5CF80912D0580FD33C0909184
:1009F0002E0590FFBDCF23EE30E084FFB9CF20E07D
:100A000030E0B6CF80912D0582FDF5CFB1CF80913A
:100A10002D0582FD30C090912E0590FD2FC084FFE2
:100A2000A7CFEDCF80912E0581FFA2CF80912D051C
:100A300027EE30E084FDE3CF9BCF80912D0583FD31
:100A4000F7CF96CF80912D0585FD1EC080912E0594
:100A500083FF8ECF29E330E08BCF80912D0586FF79
:100A600087CF2AE230E084CF80912D0586FF80CFAA
:100A700021E330E07DCF22EE30E07ACF20EE30E08F
:100A800077CF26EE30E074CF25E330E071CF909140
:100A90002D0592FF10C041E0282F2471243009F069
:100AA00040E031E0282F2871283009F030E043176A
:100AB00011F02CE0822793FF10C041E0282F247111
:100AC000243109F040E031E0282F2871283109F065
:100AD00030E0431711F02CE0822730912E0530FFD3
:100AE00010C051E0282F2171213009F050E041E081
:100AF000282F2871283009F040E0541711F029E020
:100B0000822731FF10C041E0282F2171213109F0E7
:100B100040E031E0282F2871283109F030E04317F8
:100B200011F029E0822794FD877E08951F93CF93CB
:100B3000DF930E94A604EC01811522E5920708F0DC
:100B400055C0811540E5940708F0D1C0803E91055D
:100B500020F58D3C910508F0A4C0883A910570F409
:100B6000853A910508F09AC081309105D1F104973A
:100B7000813A9105B0F1C0E0D0E033C0885A9109C4
:100B80004B97C8F7C85AD0E0CC0FDD1FC55CDE4FCD
:100B90000990D881C02DD46424C0811550E49507F4
:100BA000C0F4C11580E2D80708F0B7C0C83ED1052F
:100BB000C0F0CE019A9581159F41E8F68D2F0E94D5
:100BC0004705182FCE0199270E94A604EC01D12BCE
:100BD00008C099270E94A604CC27DF70C82BD92B08
:100BE000D06ACE01DF91CF911F910895803842E500
:100BF0009407C8F5803652E5950708F05BC0C0340D
:100C000082E5D807D0F4C03292E5D90708F04BC08E
:100C10008C2F8695869520E2829FC0011124C37097
:100C200021E030E0A90102C0440F551FCA95E2F748
:100C3000EA01C82BD92BDD68D4CF8C2F86958695F9
:100C4000877050E2859FC0011124C37021E030E01D
:100C5000A90102C0440F551FCA95E2F7EA01C82B4B
:100C6000D92BDC68BECF803C52E5950758F48F71D4
:100C7000C03AD245A0F590E0982F8827EC01C46FC8
:100C8000D06AAFCF805C9245809708F074CFDC2F9C
:100C9000CC27CC27DF71C06FD06AA3CFA497D064D4
:100CA000A0CFD0659ECFCF71D0E0DC2FCC27C16F15
:100CB000D06A97CF86958695877020E2829FC00183
:100CC0001124C37021E030E0A90102C0440F551F78
:100CD000CA95E2F7EA01C82BD92BDA6882CF0E94C5
:100CE0004705C82FD0E0DC2FCC27D0627ACF8F7198
:100CF0000E94470593E0CC0FDD1F9A95E1F7CC27C2
:100D0000DF70282F30E084FF04C050E1859F900100
:100D10001124C22BD32BD06964CF8D2F8F710E94E9
:100D20004705182FCE0199270E94A604EC01D12B6C
:100D3000DCCF80E00895F894E82FE295EF70F0E0C2
:100D400041A18F7021E030E0B90102C0660F771F2A
:100D50008A95E2F7CB01962F9095942391A392A1C7
:100D6000892B82A3789408959C0121158CE738077C
:100D700041F48091940290919502892B11F420E026
:100D800030E0C9010895ECEBF3E080E090E067E526
:100D900076E24DE756E222EF36E2778366835187AB
:100DA0004087338722879787868701967096883099
:100DB000910599F708958091090590910A059093FE
:100DC0000B0180930A010895EF92FF920F931F93F6
:100DD000CF93DF93FB018FEF9FEF4430510508F471
:100DE0005FC040912D0541FB882780F990E0880F76
:100DF000991F42FB002700F910E0000F111F000FA0
:100E0000111F802B912B40FBEE24E0F8F12C8E2952
:100E10009F2943FB222720F9C22F50E0D52F53E012
:100E2000CC0FDD1F5A95E1F78C2B9D2B44FB22271D
:100E300020F950E1259F90011124822B932B45FB33
:100E4000222720F950E2259F90011124822B932B19
:100E500046FB222720F950E4259F90011124822B84
:100E6000932B47FB222720F940E8249F900111246F
:100E7000822B932B20912E05322F3170932B2695A8
:100E80002170B22FBB0FA0E08A2B9B2B092E000CE8
:100E9000AA0BBB0B80839183A283B38380E090E095
:100EA000CDB7DEB7E6E00C945B2F9C0143E096954E
:100EB00087954A95E1F78E719927FC01E151FE4F24
:100EC00040815181F901EF70FF2721E030E002C03D
:100ED000220F331FEA95E2F7611541F0422B532BA5
:100EE00081519E4FFC015183408308952095309598
:100EF00042235323F5CF1092990410929804E8E509
:100F0000F4E08581811102C014821682379684E054
:100F1000E039F807B1F70895AC0130919B04609176
:100F20009A04232F621301C00895822F90E0FC01E0
:100F3000EE0FFF1FE057FB4F0190F081E02DE4170B
:100F4000F50791F467E0649FF001659FF00D1124AF
:100F5000E85AFB4F41E044832313E6CF01968370A8
:100F6000992780939B0408950196282F2370DACF48
:100F7000FC018481862381110AC082818115B9F028
:100F80006823908593FF05C081E061110FC080E068
:100F90000895282F22952F708F70282B962F9295C9
:100FA0009F706F70962B81E02913F1CF089581E037
:100FB0000895FA01309709F009950895E091BD026E
:100FC000F091BE02309729F00190F081E02D099553
:100FD000089580E00895A3E0B0E0E1EFF7E00C941D
:100FE000432F9C018091EC019091ED0182179307B2
:100FF000A1F03093ED012093EC01E091BD02F0915E
:10100000BE02309751F083E089833B832A830084BA
:10101000F185E02DCE01019609952396E2E00C942E
:101020005F2FA3E0B0E0E7E1F8E00C94432F9C01D0
:101030008091EA019091EB0182179307A1F0309320
:10104000EB012093EA01E091BD02F091BE023097DE
:1010500051F084E089833B832A830084F185E02D6D
:10106000CE01019609952396E2E00C945F2F9091B2
:101070000E01913091F0ACEAB1E0EFEF90E02D91EC
:10108000821751F0EF3F19F4211101C0E92F9F5F42
:101090009630A9F7EF3FC9F4089590912D0597FF79
:1010A000EACFE82FE695E695E695803FA8F7F0E0D1
:1010B000EE54FE4F877021E030E001C0220F8A9588
:1010C000EAF78281822B828308950E2E000CFF0B9B
:1010D000E655FE4FF8CF90910E01913021F490919A
:1010E0002D0597FD0CC0ECEAF1E09191891302C047
:1010F000DF011E9251E0E23BF507B9F70895E82FB2
:10110000E695E695E695803FC8F7F0E0EE54FE4F91
:10111000877021E030E0A90102C0440F551F8A9575
:10112000E2F7CA0180959281892382830895809194
:101130000D0108952FB7F89480917B0290917C0265
:10114000A0917D02B0917E022FBF089580910B0582
:1011500090910C05892B91F00E949A0820914F04E0
:1011600030915004AC01421B530B9A0181E0409135
:101170000B0550910C052417350708F480E00895FD
:10118000CF93DF93C091520480915404C82B809177
:1011900051048115F9F080910B0590910C05892B74
:1011A00029F00E94A60881110E949B04D09151044D
:1011B00080910E01813021F480912D0587FD14C0AE
:1011C00086E02CEA31E090E0815090F491110E9489
:1011D0009B04CD2B8091380380958C23909137030D
:1011E000892BDF91CF9108958EE124EB31E0EBCF95
:1011F000F90141919F01411539F39F5FE5CF962F8A
:1012000020912E0522FF10C0682F660F660F660F13
:10121000692B609355040E94C0030E949A08909322
:1012200057048093560408950E94C0030895909136
:101230005104292F2823211561F08095892380935B
:101240005104811539F00E949A0880934F049093BD
:101250005004089580E090E0F8CFCF93C82F80919C
:101260002E0582FF0CC0809151048C1741F00E9422
:101270009A089093500480934F04C0935104CF91E7
:1012800008952FB7F89460917B0270917C02809151
:101290007D0290917E022FBF08950F931F93CF93ED
:1012A000DF93D82FC92F4091B6035091B7036091B7
:1012B000B8037091B9032FB7F89480917B02909195
:1012C0007C02A0917D02B0917E022FBF841B950B02
:1012D000A60BB70B843F9140A105B10528F560919D
:1012E000B6037091B7038091B8039091B90304EFEE
:1012F00011E020E030E060938302709384028093D9
:1013000085029093860200937F02109380022093BF
:10131000810230938202D093B403C093B503DF916E
:10132000CF911F910F9108950E94410902E310E0AF
:1013300020E030E0E0CF9C014FB7F89480917B0231
:1013400090917C02A0917D02B0917E024FBF821BE2
:10135000930B089587E797E790930108809300081F
:1013600088E19AE00FB6F894A895809360000FBECC
:1013700090936000FFCF0895FC019B018091E001F4
:101380009091E1018617970740F0672B29F480912F
:10139000E8008E778093E800C90140E0009741F4AF
:1013A000411106C08091E80082FF2FC080E00895BF
:1013B000209196022115A9F12530A9F12091E8008C
:1013C00023FD2DC02091E80022FDECCF2091E80004
:1013D00020FFE4CF3091F3002091F200009719F044
:1013E0002830310558F041E02830310509F040E05F
:1013F0002091E8002E772093E800D0CF41914093D0
:10140000F10001972F5F3F4FE9CF80919602811540
:1014100041F0853041F08091E80083FFC3CF81E047
:10142000089582E0089583E008958091DA0187FFAE
:1014300013C08091E80082FF06C08091E8008B779E
:101440008093E8000895809196028111F2CF08956B
:10145000809196028115D9F38091E80080FFF8CF42
:101460008091E8008E77ECCF2091E4003091E50088
:1014700095E6A9012091EC00822F817020FF06C023
:101480008091E80080FF06C080E008952091E80088
:1014900022FD1AC080919602811589F0853089F06D
:1014A0008091EB0085FD0FC02091E4003091E500B4
:1014B00042175307F9F29A95E1F684E0089582E025
:1014C000089583E0089581E00895E8EDF0E08081DB
:1014D0008E7F80831092E2001092DA001092E10079
:1014E000A0EEB0E08C9181608C9380818F778083B7
:1014F00019BCA7EDB0E08C918E7F8C9380818F7E9C
:1015000080831092D9010895982F9093E90089174C
:1015100071F07091EC002091ED005091F00021FDF0
:1015200009C09F5F973089F78093E9000895762F6F
:10153000242F50E03091EB003E7F3093EB00309150
:10154000ED003D7F3093ED003091EB003160309342
:10155000EB007093EC002093ED005093F00020918D
:10156000EE0027FDDECF0895A0E0B0E0EAEBFAE060
:101570000C943D2FC8EDD0E088818F7E8883E7ED05
:10158000F0E080818160808384E082BF81E080938D
:10159000D90188818E7F888302EE10E0F8011082E5
:1015A0001092DA0081EEC82ED12CF60110828881CB
:1015B0008F77888388818068888388818F7D8883FE
:1015C00019BC109296021092D801109271021092DA
:1015D000D70190EEE92EF12CF70180818B7F80837B
:1015E00088818160888342E060E080E00E94840A14
:1015F000F60180818E7F8083F80180818160808305
:10160000808188608083F70180818E7F80838881DC
:1016100080618883CDB7DEB7E8E00C94592F9C0138
:101620002115310509F408958FE99FE00197F1F73D
:1016300000C0000021503109F3CF0F931F93CF93C7
:10164000DF938B01EA0190919602943059F58093D3
:10165000E9008FEF9091E80095FD06C095ED9A9511
:10166000F1F700008A95B1F78091E80085FF1AC074
:101670000E94340A811111C08091E80085FD06C0E6
:101680008091E8008E778093E800F2CFF801819195
:101690008F018093F100219779F78091E8008E7790
:1016A0008093E800DF91CF911F910F910895CF9320
:1016B000DF93D82FC92F48E050E0682F792F81E0C1
:1016C0000E941D0B88E0ED2FFC2FA2EEB1E00190EF
:1016D0000D928A95E1F7DF91CF910895BC0140E228
:1016E00050E084E00E941D0B0895BC0143E050E0EF
:1016F00084E00E941D0B089590912E0592FB2227F5
:1017000020F9281779F080FB92F990932E056091CB
:101710002D0570912E0584E090E00E94DC2F82E080
:101720000E94710408951F93CF93DF93962F122F79
:10173000632F282F292B2430C8F44C30B8F4C42F41
:10174000D0E0CC0FDD1F28E1929FC00DD11D1124E8
:1017500090E6899FC00DD11D1124CE0188960E946C
:10176000BE2F612FCE0189960E94BE2FDF91CF91AF
:101770001F910895CF93DF93CCEBD2E060E0CE01D0
:101780000E94BE2F2196C11584E0D807B9F7DF91DA
:10179000CF910895CF93C82F60EF811101C06FEFF3
:1017A00084E290E00E94BE2F64E4C11101C06FEF9B
:1017B00085E290E00E94BE2F61E2C11101C06FEF8F
:1017C00086E290E00E94BE2FCF9108950F931F9361
:1017D000CF93DF9309E015E0C8EAD1E0CE010E9483
:1017E000A02FF80161918F01681719F0CE010E94B6
:1017F000BE2F2196CC3CF1E0DF0781F7DF91CF913E
:101800001F910F9108950F931F93CF93DF9309E0DA
:1018100015E0C8EAD1E0CE010E94A02FF801819323
:101820008F012196CC3CF1E0DF07A9F7C0E8D4E0B6
:10183000FE0185919491009711F0FC0109952C9679
:10184000F5E0C031DF07A1F7DF91CF911F910F9134
:1018500008950F931F93CF93DF93982F962B943077
:1018600020F54C3010F5C42FD0E0CC0FDD1F28E15F
:10187000629FC00DD11D112430E6839FC00DD11D84
:101880001124CE0188960E94A02F082F10E0102F5F
:101890000027CE0189960E94A02F9801282BC9010C
:1018A000DF91CF911F910F91089580E090E0F8CFE4
:1018B000462F672F2091990230919A02232B91F4A1
:1018C000703F39F4403F71F48091970290919802F3
:1018D0000895982F972B943028F44C3018F40E94D8
:1018E000290C089580E090E00895A0E0B0E0EBE7D7
:1018F000FCE00C943E2F7C010091080580910705C7
:10190000082BC3E0D0E010E0C8010C2E02C0959572
:1019100087950A94E2F780FD09C02197A8F7D12C9A
:101920008D2DCDB7DEB7E7E00C945A2FDC2EB70132
:101930008C2F0E94580C0E949605019771F3F0CFEE
:10194000CF93DF93D82FC92F0E94750C6D2F7C2F5A
:101950000E94580C0E949605DF91CF910895FC01DA
:101960008481811571F087819085009729F00E940C
:1019700096050E9496030895808191810E94A00C93
:10198000F8CF80E008951F93CF93DF93182FD92FBE
:10199000611599F0411589F00E94750CC82F682FC8
:1019A000812F9D2F0E94DC03612F7D2F8C2F0E94A1
:1019B000580CDF91CF911F9108950E941204C82FF7
:1019C000F3CFCF93DF93FC01462FC781D0852097BB
:1019D00031F46581808191810E94C30CEC01CE01BC
:1019E000DF91CF91089584E290E00E94A02F803F84
:1019F00089F485E290E00E94A02F843459F486E2B5
:101A000090E00E94A02F91E0813209F090E0892FB0
:101A10008170089580E0FCCF80910E01813059F5EE
:101A200080912D0587FF27C00E94C0088093B301D5
:101A300040E250E06DE972E082EB91E00E94732F8A
:101A4000892BC1F080E2E2EBF1E0ADE9B2E0019078
:101A50000D928A95E1F7E091BD02F091BE023097B8
:101A600049F086E08093B2010480F581E02D82EB9D
:101A700091E0099508950E94C0088093AA0148E06A
:101A800050E06FEB72E08AEA91E00E94732F892B9D
:101A900089F388E0EAEAF1E0AFEBB2E001900D9261
:101AA0008A95E1F7E091BD02F091BE02309711F303
:101AB0000280F381E02D8AEA91E0DBCF811521F0ED
:101AC0000E948D040E940C0D0895811539F09091AB
:101AD0005404892B809354040E940C0D08958115A1
:101AE00021F00E9493040E940C0D0895811541F08D
:101AF0008095909154048923809354040E940C0D86
:101B00000895811539F19CEF980F913A28F40E94BD
:101B10006B080E940C0D089590E2980F983050F4D5
:101B2000877091E001C0990F8A95EAF7892F0E948A
:101B30009304EFCF9BE5980F933028F480E090E07A
:101B40000E94EB070895885A8B3120F480E090E0E2
:101B50000E9411080895CF93DF93EC010E94810D3C
:101B6000CE01805E9109089720F066E77DE020971E
:101B700011F46FE67DE0CE010E948C03DF91CF91DE
:101B800008951092520480910E018130C1F4809129
:101B90002D0587FF14C0E4EBF1E08EE1DF011D921B
:101BA0008A95E9F780E090E00E94EB0780E090E002
:101BB0000E941108109254040E940C0D0895ECEA42
:101BC000F1E086E0EBCF0E94C10D2FEF84E39CE0B3
:101BD000215080409040E1F700C0000088E19AE089
:101BE0000FB6F894A895809360000FBE90936000A4
:101BF000FFCFCF93DF93FB018FEF9FEF4430510571
:101C0000B8F0D081C1810E94C10DD0932D05C37061
:101C100080912E058C7FC82BC0932E0560912D05D9
:101C200070912E0584E090E00E94DC2F80E090E02F
:101C3000DF91CF910895E9E0F5E0128E138E8FEADF
:101C400090E09183808385E0848F28E833E13383BB
:101C5000228322E330E0378B268B28EC30E0318F73
:101C6000208F158E178E168E20E530E031A320A32D
:101C700082A30E94E60B0E94C10D10922E051092C5
:101C80002D0580E0846080932E0560E074E084E0A0
:101C900090E00E94DC2F0E94030C0895AAE2B0E0BD
:101CA000E4E5FEE00C94422F8AED91E0FC01019600
:101CB0002091F100208321E0823E9207B9F78091C4
:101CC000DB01893009F45AC0C8F4823009F4B7C086
:101CD000833009F486C0813091F18091E80083FF60
:101CE000EBC08091DA019091DB019A3008F0E4C0FA
:101CF000E92FF0E0E450F04D0C94262F8A3009F4DF
:101D00008DC08B3051F78091DA01813231F78091AB
:101D1000DE019091DF01892B01F78091E800877F38
:101D20008093E8000E94150A81E09091DC019111F6
:101D300001C080E080930E010E94C10DCECF809142
:101D4000DA01813A51F68091E800877F8093E800BC
:101D50008091DE019091DF01892B61F060E080E0ED
:101D600090E070E00E94BC098091E8008B7780933E
:101D7000E800B3CF68E082EE91E0F3CF8091DA0122
:101D8000813209F0AACF8091DE019091DF018D7F31
:101D9000892B09F0A2CF8091E800877F8093E8002B
:101DA0008091E80082FF18C09091F3008091F200CA
:101DB000029731F48091F100813011F0863021F4E6
:101DC0008091F10080930D018091E8008B778093E2
:101DD000E8000E94150A81CF809196028111E0CF20
:101DE0007CCF8091DA01813A09F077CF8091DE01D2
:101DF0009091DF01892B09F070CF8091E800877FF7
:101E00008093E8008091E80080FFFCCF80910E0174
:101E10008093F1008091E8008E77D9CF8091DA012C
:101E2000813209F05ACF8091E800877F8093E800E3
:101E30000E94150A8091DD0180930C014ECF8091A4
:101E4000DA01813A09F049CF8091E800877F8093D9
:101E5000E8008091E80080FFFCCF80910C01D8CF92
:101E6000803889F0823841F58091DE018F708730AB
:101E700018F58093E9008091EB0085FB882780F9B5
:101E80001092E90006C080917102880F9091D701ED
:101E9000892B9091E800977F9093E8008093F10060
:101EA0001092F1008091E8008E7723C0811116C056
:101EB0008091DC01813011F18091E80083FF0AC03C
:101EC0008091E800877F8093E8008091EB0080623A
:101ED0008093EB00AA96E3E00C945E2F823061F7CA
:101EE0008091DC01811589F01092E9008091E80071
:101EF000877F8093E8000E94150ADECF81E093304F
:101F000009F080E080937102EFCF8091DE018F7045
:101F10002FEF280F263080F68093E9002091EB0008
:101F200020FFE2CF933031F48091EB008062809308
:101F3000EB00DACF9091EB0090619093EB0021E001
:101F400030E0A90102C0440F551F8A95E2F7409383
:101F5000EA001092EA008091EB008860E8CF8111DE
:101F6000ABCF1091DC011F778091E3008078812B4B
:101F70008093E3008091E800877F8093E8000E94CF
:101F8000150A8091E80080FFFCCF8091E300806813
:101F90008093E30083E0111101C082E080939602F8
:101FA0008BCF8058823008F087CF8091DC019091F0
:101FB000DD018C3D53E0950799F583E08A838AE241
:101FC00089834FB7F894DE01139620E03EE051E29A
:101FD000E32FF0E050935700849120FF03C08295D7
:101FE0008F703F5F8F708A30C8F0895C90E08D936E
:101FF0009D932F5F243161F74FBF8091E800877F69
:102000008093E8006AE270E0CE0101960E94BC096C
:102010008091E8008B778093E8004ECF805DE6CF1B
:10202000292F33272330310509F44EC078F52130AC
:10203000310509F488C08BE590E0EFE2F2E0223050
:10204000310509F039CF2091E800277F2093E8007F
:102050002091E0013091E1018217930708F49C017F
:1020600040E02115310509F073C0411171C0809124
:10207000E80082FDCDCF80919602811549F285302E
:1020800039F28091E80083FFF2CFC2CF8091DE0168
:102090009091DF012132310509F446C02232310529
:1020A00009F00ACF8330910508F006CFFC01EE0F4E
:1020B000FF1FE15EFE4F0190F081E02D845E9E4F98
:1020C000DC018C9190E010C09C013327823021F11B
:1020D0002330310568F4232BB9F4E2EFF2E0E49108
:1020E0008E2F90E0E2EFF2E0009709F4E5CEABCF5F
:1020F0002330310509F0E0CEECE9F2E0E4918E2FD7
:1021000090E0ECE9F2E0F0CFECEDF2E0E4918E2F1C
:1021100090E0ECEDF2E0E8CFEAEBF2E0E4918E2F14
:1021200090E0EAEBF2E0E0CF8330910508F0C4CE16
:10213000FC01EE0FFF1FEB5DFE4F0190F081E02DE3
:1021400089E090E080CF82E190E0EAE8F2E07BCFA6
:1021500080919602811509F45BCF853009F458CF40
:102160008091E80083FD54CF8091E80082FD7FCF0D
:102170008091E80080FF75CF9091F3008091F2008C
:102180002115310519F08830910550F041E008978C
:1021900009F040E08091E8008E778093E80061CFFD
:1021A00044914093F1003196215031090196E8CFD6
:1021B000803809F081CE8091E800877F8093E80025
:1021C0008091D8018093F1006DCE811175CE109170
:1021D000DC01123008F070CE8091E800877F809398
:1021E000E8001093D8010E94150A1115F9F084E057
:1021F0008093960242E061EC81E00E94840A42E210
:1022000061EC84E00E94840A42E261EC82E00E9478
:10221000840A42E260EC83E00E94840A8091960284
:10222000843051F482E080930F0146CE8091E30028
:1022300087FDDDCF81E0DCCF81E0F5CF809111011A
:10224000877F80931101909154049D7F9093540453
:1022500084FF06C08F7E8093110182E00E948D046E
:102260008091110185FF06C08F7D8093110180E26E
:102270000E948D040E940C0D0895CF93DF93EC0112
:102280004A855B856E857F850E94D9079B819095E5
:10229000809154048923809354048C810E94930478
:1022A0000E940C0D86E0FE0111928A95E9F7DF91FC
:1022B000CF910895CF93DF93EC018D8181FD14C000
:1022C00082608D83809154049B81892B8093540478
:1022D0008C810E948D040E940C0D488559856E8565
:1022E0007F85CE010E94D90710923D0410923C04D4
:1022F0008D8180FD03C0CE010E943D11DF91CF9101
:1023000008951F93CF93DF93182FA091B203B0913C
:10231000B303109709F44AC01092B5031092B403A6
:1023200010923803109237031696CD91DC911797CF
:10233000CE019A9581159F4108F4D07ED1E0C1115C
:1023400001C0D0E01996ED91FC911A97309731F0C9
:102350001B966D917C9180E00995D823D11539F0B9
:102360008CEF8C0F813A30F58C2F0E946B08111581
:10237000A9F0E091B203F091B303808584FD0EC013
:102380008091B103811551F0808191819C01215090
:1023900031092F333E4710F40E944D090E940C0D65
:1023A0001092B3031092B2031092B103DF91CF9158
:1023B0001F9108950E940C0D8C2F0E94810DD7CF84
:1023C000AEE1B0E0E6EEF1E10C94382FA09094027B
:1023D000B090950281E090E09093950280939402F2
:1023E000812C912CE12C6401F12C15C0F801259170
:1023F0003491472D6F2D8E2D0E94930B0E5F1F4F32
:1024000073948CE07812F2CFACE0CA0ED11CF39436
:10241000B4E0FB1639F08601000F111F0A501D4F62
:10242000712CE4CFE39480E3880E911CA4E0EA12BF
:10243000DACF0E941B0E1A8219821C821B821E8216
:102440001D8218861F8288EC90E09A8789870CECA1
:1024500011E04AE050E0B801CE0101960E94E22F5F
:10246000065F1F4F0C31B2E01B0799F7FE013B9648
:102470008AE0DF011D928A95E9F77F014AE050E08A
:10248000B801C7010E94E22F065F1F4F0C36B2E071
:102490001B07A1F7FE01759689E0DF011D928A9561
:1024A000E9F78FEF9FEF9A8F898F87E08E8F7F01FB
:1024B0004AE050E0B801C7010E94E22F065F1F4FBB
:1024C0000C3BB2E01B07A1F7B0929502A0929402D8
:1024D0006E96EDE00C94542F80E00E94CA0B60E0F1
:1024E00087E290E00E94BE2F0E94E0110E94BA0B8A
:1024F00081E00E94CA0B0895A8E0B0E0E2E8F2E1B2
:102500000C94432F65EE7EEF80E090E00E94DC2F7C
:1025100060E082E090E00E94BE2F81E0809307059A
:1025200061E083E090E00E94BE2F60E074E184E00F
:1025300090E00E94DC2F60E086E090E00E94BE2FD9
:1025400060E087E090E00E94BE2F40E050E0BA01DA
:1025500088E090E00E94D02F60E083E290E00E944B
:10256000BE2F60E08CE090E00E94BE2F60E08DE026
:1025700090E00E94BE2F19821A821B821C821D824B
:102580001E821F82188648E050E067E170E0CE01AD
:1025900001960E94AE2F40E050E0BA018FE190E03A
:1025A0000E94D02F80E00E94CA0B0E946C1240E073
:1025B00050E0BA018FE090E00E94D02F40E050E060
:1025C000BA0183E190E00E94D02F2896E2E00C94BB
:1025D0005F2FEBEFE80FEF3308F072C0F0E0EA5F37
:1025E000FF4C0C94262F0E947C1281E0089580916C
:1025F0007202807F8093720281E080932C03F5CF7A
:102600008091940290919502892B79F30E94C10DDB
:102610002FEF84E39CE0215080409040E1F700C020
:1026200000000E94AA0990917202892F8E7F90FF6C
:1026300081608093720280FDD8CF817F8093720287
:10264000D4CF90917202892F8D7F91FF8260809309
:10265000720281FFCACF809172028160EFCF9091A8
:102660007202892F8B7F92FF84608093720282FDB9
:10267000F2CFBBCF90917202892F877F93FF886042
:102680008093720283FDE7CFB0CF0E94C10D90917D
:102690002D05892F97FB87F9805880932D05A5CFAD
:1026A00081E00E94BA030E94C10D9FCF895391E03F
:1026B00001C0990F8A95EAF7892FF3CF8D51F7CF93
:1026C00080E00895CF93C82F8115C9F18CEF8C0F4E
:1026D000813A08F056C080912C03811529F0813091
:1026E00001F110922C0309C080915204823229F426
:1026F0008C2F0E94E912811122C080910E0181303D
:1027000001F1ECEAF1E082EB91E02191C21799F13D
:102710008E179F07D1F78C2F0E9437080E940C0D4F
:102720000EC080915204823219F3C932D1F228F4DA
:10273000CB3029F0C431A9F2E0CFC833F1F6CF9104
:10274000089580912D0587FFDCCFEC2FE695E69567
:10275000E695F0E0EE54FE4F828190E04C2F4770FA
:1027600021E030E002C0220F331F4A95E2F78223B6
:102770009323892B81F28C2F0E946B080E940C0DF1
:10278000CACF80E28C0F883048F4C77081E001C066
:10279000880FCA95EAF70E948D04C0CF8BE58C0F95
:1027A000833038F42C2F2452330BC9010E94EB07DD
:1027B000C6CFC85ACB3118F6EC2FF0E0EE0FFF1F52
:1027C000EF58FE4F808191810E941108B8CFCF93BE
:1027D000DF93EC01805E9109089720F065E67DE0CB
:1027E000209711F46EE57DE0CE010E948C038C2FC2
:1027F0000E946213DF91CF9108959C01611529F029
:1028000080915404826080935404C90190528115D0
:10281000904308F43327C9010E94E7130895CF922B
:10282000DF92FF920F931F93CF93DF93EC018B0105
:10283000F42E8091110182FF65C0C0904204D090B7
:102840004304CC16DD0619F0209709F05BC0809197
:1028500011018B7F80931101C1E081FD10C0809137
:102860004004909141049801281B390BC1E08091EC
:102870000A0190910B012817390708F4C0E08091F4
:102880001101C0FB81F9809311016C2FC6010E94D8
:1028900055078091520481FF08C080911101806129
:1028A0008093110182E00E9493048091520485FF7D
:1028B00008C08091110180628093110180E20E9422
:1028C00093046C2FC6010E94FD13F11431F0809126
:1028D000240585FF02C086FF29C0809127059091BD
:1028E00028050E940F0B80914204909143049C01A3
:1028F00030522115304308F499270E94AB0D0E94F5
:102900001E1110C0CE01905281159043B8F4CE0133
:1029100099270E94AB0D8091420490914304C817FF
:10292000D90769F31093410400934004DF91CF91DC
:102930001F910F91FF90DF90CF900895CE01E9CFC6
:102940000F931F93CF93C82F8B010E946213011521
:10295000110539F48C2F0E94810DCF911F910F9199
:1029600008958FE99FE00197F1F700C00000015042
:102970001109EDCF6091290570912A05893321F065
:1029800060912705709128050E94A0140895AAE07F
:10299000B0E0EDECF4E10C943D2FE0E1F2E080E5F5
:1029A000DF011D928A95E9F7E8E5F4E088E3DF01AD
:1029B0001D928A95E9F780E1C82E82E0D82E7F012A
:1029C0000CE112E0F701D182C0824AE050E0B80188
:1029D000CE0101960E94902F88E0FE013196D6012B
:1029E00001900D928A95E1F789859A85D701139612
:1029F0009C938E931297BAE0CB0ED11CE7E0EE0EBB
:102A0000F11C065F1F4F0C36F2E01F07D9F62A961D
:102A1000E8E00C94592FAAE0B0E0E1E1F5E10C9474
:102A20003B2F09E313E08CE6E82E82E0F82E97E0D6
:102A3000B92E2FE0C22E22E0D22EAA24A3944AE07F
:102A400050E0B701CE0101960E94902FF801389610
:102A5000DF018B2D1D928A95E9F789819A81D80132
:102A600011969C938E938F8112968C9312978D81E1
:102A700013968C931397888514968C931497898555
:102A800015968C9315978B819C8117969C938E93AA
:102A900016978A8587FD04C01E96DC92CE921D97FC
:102AA00080FF02C0F801A08681FF07C0D8011896F8
:102AB0009C911897926018969C9382FF04C0F8012D
:102AC00090859460908783FF07C0D80118969C91E9
:102AD0001897986018969C9384FF04C0F80190851D
:102AE0009061908785FF07C0D80118968C91189740
:102AF000806218968C93BAE0EB0EF11C015F1F4FB9
:102B0000ECEBEE16E2E0FE0609F099CF2A96EAE039
:102B10000C94572F282FCB01283070F44AE0249FC3
:102B200090011124B90164537E4F4AE050E00E94A5
:102B3000902F80E090E008958FEF9FEF0895AAE036
:102B4000B0E0E5EAF5E10C94432F9C01975581151F
:102B5000914070F4BE016F5F7F4F822F0E948A15F3
:102B6000892B31F489859A852A96E2E00C945F2FAF
:102B70008091210590912205F7CFA0E0B0E0E3EC31
:102B8000F5E10C943E2F162FD72FC42FD22E81158E
:102B9000A9F040934D040E949A089093D601809327
:102BA000D501C77081E001C0880FCA95EAF70E947D
:102BB0005E0DCDB7DEB7E7E00C945A2F90914D042F
:102BC000491335C08091D5019091D6010E949B098F
:102BD0007C01812F9D2F0E949F15E816F90638F57C
:102BE000D0E2DD0DCD15A1F0C77011E0812F01C03D
:102BF000880FCA95EAF70E946F0DD83048F48D2DE2
:102C0000877001C0110F8A95EAF7812F0E945E0D2F
:102C1000802F0E94BA14D83060F62D2D277081E0E5
:102C200001C0880F2A95EAF70E946F0DC2CFC770C6
:102C300081E001C0880FCA95EAF7F6CF9C01CB016D
:102C4000DA01F901329645915491A417B50748F07D
:102C5000F9013496659174910E94802F80E090E094
:102C600008958FEF9FEF08959C01DA010296FC0111
:102C700045915491FC0185919491A817B90758F09A
:102C8000F9013496859194910E94802F0E94E60B61
:102C900080E090E008958FEF9FEF0895A8E0B0E006
:102CA000E4E5F6E10C94352FFE01319688E0DF0172
:102CB0001D928A95E9F79BE2C92E91E0D92E8F01EA
:102CC0002F0166246394712C3BE3832E31E0932E15
:102CD000F60181916F018F3F09F445C0F894E82F08
:102CE000E295EF70F0E021A18F70A30102C0440FC4
:102CF000551F8A95E2F7CA01922F982B91A392A1B2
:102D00008095892382A3789400C0EFE2F1E021E06E
:102D100030E0A12CB12C41914F3F81F0A42FA2951E
:102D2000AF70A05EB0E08C9190E04F7002C09595BE
:102D300087954A95E2F7790180FF02C0E12CF12CDA
:102D4000AE28BF28220F331F8E169F0621F7F601EB
:102D500082918F3F11F00E949B0650EA5A95F1F73D
:102D6000D801AD92BC920E5F1F4FBFE2CB16B1E00F
:102D7000DB0609F0ADCF48E050E0B20188E692E012
:102D80000E94732F892BA9F088E0F201A8E6B2E037
:102D900001900D928A95E1F781E08093D4010E9421
:102DA0009A089093D3018093D2012896E0E10C9485
:102DB000512F8091D4018115C1F38091D20190915E
:102DC000D3010E949B09059780F348E050E068E634
:102DD00072E08CE892E00E94732F892B49F088E022
:102DE000E8E6F2E0ACE8B2E001900D928A95E1F7F6
:102DF0001092D401DACFA0E0B0E0E1E0F7E10C946A
:102E00003C2FEC018881811509F4A1C0813009F0C3
:102E100044C08981813049F48E010E5F1F4F8A8141
:102E20000E94BA14E8012196EDCF823039F48E0168
:102E30000E5F1F4F8A810E946213F4CF833039F4F2
:102E40008E010E5F1F4F8A810E94810DEBCF84306F
:102E500011F02196E8CF2A81229680E090E06AE086
:102E6000AE014F5F5F4F2053330B2A30310550F0D6
:102E70000097C9F2EFE9FFE03197F1F700C00000D9
:102E80000197F6CF689FF001699FF00D1124C901E9
:102E90008E0F9F1F2981EA01E3CFE82FF0E0E15573
:102EA000FE4FB490282F26952695269530E0F901FF
:102EB000E156FE4FE4908770F12C082E02C0F59485
:102EC000E7940A94E2F7E0FAEE24FF24E0F8F9012F
:102ED000E157FE4FC490D12C082E02C0D594C79460
:102EE0000A94E2F7C0FACC24DD24C0F8F901E158D5
:102EF000FE4F049110E002C0159507958A95E2F700
:102F000001701127E114F10419F081EE0E9462139F
:102F1000C114D10419F086EE0E94621360E070E0E3
:102F20008B2D0E94A014C114D10419F086EE0E94CA
:102F3000810DE114F10419F081EE0E94810D01155B
:102F4000110509F470CF8CE20E94BA146CCFCDB792
:102F5000DEB7E9E00C94582FABE0B0E0E2EBF7E12C
:102F60000C94332F7C01DC0114968C91811509F4AB
:102F700068C161E0C7010E94E10C8C01F701858105
:102F8000811531F180913C0490913D04009701F14D
:102F900008171907E9F0FC01FF27887F9927892B7B
:102FA00009F067C074E0EE0FFF1F7A95E1F7E45473
:102FB000FC4F85818460858311830083CF010E944B
:102FC0005A111092540461E0C7010E94E10C8C0177
:102FD000D70115968C91811509F4BEC0C801975789
:102FE0008038910508F0EAC0D02EB0E10B1708F048
:102FF00017C18FEF93E00E94A02F811111C10CEB3C
:1030000012E0D11039C064E0662E9E012F5F3F4F61
:103010005901D501E62D1D92EA95E9F74801FFEF28
:103020008F1A9F0AC8010E94A02F8983811509F475
:10303000F7C0813009F08AC0680122E0C20ED11CBD
:10304000C4010E94A02F782E8A83811509F4E8C05C
:103050008FEF870D8330F0F4C6010E94A02F8B8381
:10306000811519F0C5010E94FB160D5F1F4F680105
:1030700071C0E0E0F0E09DCF0115E4E01E0709F427
:10308000CFC0C8010E94A02F0F5F1F4F8111F4CF46
:10309000DA94B7CF8BEF870D833060F5480143E0BA
:1030A000840E911CC6010E94A02F8B83811509F408
:1030B00050C00C5F1F4F6801C4010E94A02F8C8379
:1030C000811509F447C08B819C818130AFEF9A074D
:1030D00010F0982F8827B6E07B1631F0E7E07E16D7
:1030E00031F00E94442636C00E94FC2533C00E9465
:1030F000202630C0F4E07F122DC0C6010E94A02F10
:10310000982E680124E0C20ED11CC80103960E94CB
:10311000A02F282F911409F483C0811509F480C0D1
:103120002150330B4FEF429FC001439F900D11245C
:10313000492D4150550B840F951F019758F0AFE969
:10314000BFE01197F1F700C00000F7CFC5010E9462
:10315000FB16640186015DCF6801E7E5DE1AC11444
:10316000F1E0DF0658F56DE273E08C2D0E948A15C0
:10317000892B21F5C60144E0880F991F4A95E1F794
:10318000FC01E454FC4F22812130A1F520912D0354
:1031900030912E03232B91F020912F033091300397
:1031A000232B61F02091310330913203409133039E
:1031B00050913403242B352B232B21F1D701159665
:1031C0002C90211409F441C00E35BCE71B0729F1EE
:1031D0000F35ECE71E0741F00D35FCE71F07A9F599
:1031E000809110018115C9F01092100180E00E94B9
:1031F000811116C0223011F7209131033091320332
:10320000232BE1F2FC01EF53FC4F20812E7F208322
:1032100084549C4F0E945A11D1CF81E080931001B9
:10322000809155048770811561F0D70115968C91B6
:10323000811539F080912E0582FF03C082E00E9443
:1032400071042B96E2E10C944F2F809110018111B3
:1032500048C0C80197558115914008F0DEC058015B
:10326000F8EFAF22BB24A114B104D1F6F801FF2777
:1032700024E0EE0FFF1F2A95E1F79F0124543C4FF5
:103280006901D70115968C91EF53FC4F908180FB1B
:1032900090F99083811509F415C20E949A089093C1
:1032A0003F0480933E04F60182818F5F8283809188
:1032B000540490915204892B838380915104848318
:1032C0004681578166857785C6010E94D907D60158
:1032D00015968C9181FF5801B0923D04A0923C0458
:1032E0009CC0280130EE431A51083090530480915D
:1032F0005204382A80915104382A48E04416510477
:1033000008F05EC098012770332781E090E001C08B
:10331000880F2A95EAF7211409F44FC0382AD701FB
:103320008D919C910E94120421E030E0F90102C0CD
:10333000EE0FFF1F8A95E2F7FF83EE832091B20321
:103340003091B303398728874091BA035091BB036A
:103350005B874A8739E3C32E33E0D32EA12CB12CEF
:10336000311005C0D60112968C9181111BC0F60157
:10337000838190E02E813F8182239323892B91F0DA
:103380008085982F9770911101C087E038E043162F
:10339000510408F0BFC0211409F4B8C086958170AB
:1033A0008111BDC0EFEFAE1ABE0AFFE0CF0ED11CF7
:1033B00028E0A216B104A1F61CC080953822AFCF38
:1033C000211091C08091BA039091BB03081719078F
:1033D00081F41092BB031092BA031092B6031092BC
:1033E000B7031092B8031092B9031092B50310926C
:1033F000B4038091B2039091B303009709F429CFED
:1034000038E04316510408F047C1632D0E94B80705
:10341000811103C081E00E9481118091240580FF09
:10342000C1C10E949A083C01F7018581811509F408
:10343000CBC18091110182FF06C040E0B30180E062
:1034400090E00E940F140431FCE71F0709F4B8C193
:1034500005312CE7120709F452C103313CE7130789
:1034600009F493C1C80190528115904308F051C1ED
:103470001092430410924204F70195819111109229
:103480004D040631FCE71F0709F071C28091520418
:103490003091230530FF04C0282F247421115BC212
:1034A000282F2A7A31FF04C0482F4171411120E0B2
:1034B00032FF04C0482F4878411120E033FF03C099
:1034C0008272811120E0911509F447C281E0211137
:1034D00001C080E080934E0485E3211101C089E2A0
:1034E0000E943708CAC01093BB030093BA030E941E
:1034F00041096093B6037093B7038093B803909328
:10350000B9031092B5031092B40309CF82FB882748
:1035100080F946CF211409F445CF80FF43CFD6016F
:103520008D909C900815190519F4211409F43ACFCF
:10353000E885F985EC15FD0509F434CFD6011D9613
:10354000ED91FC91309721F08081811509F42ACF0B
:10355000632DC6010E94B807811509F423CF81E0CD
:103560000815190509F080E082218D8381149104EA
:1035700041F0811106C0EA85FB858E169F0609F091
:1035800011CF80E00E948111D092B303C092B203A8
:1035900081E08093B1038FE08A9DF0018B9DF00D57
:1035A0001124E75CFC4F8581809338032D81211124
:1035B0000EC08114910459F0808191819C012450A6
:1035C0003109213A310508F049C00E946B088FE0AB
:1035D0008A9DF0018B9DF00D1124E75CFC4FC680A5
:1035E000D780C6019A9581159F4110F440EED422F0
:1035F00099249394C60101978F339E4708F0912C2C
:103600008FE08A9DD0018B9DB00D1124A75CBC4F2B
:103610001996ED91FC911A97309731F01B966D91A8
:103620007C9181E0099598229114A9F08FE08A9D00
:10363000F0018B9DF00D1124E75CFC4F8681978192
:103640000E9462038093370388E04816510448F4CF
:10365000C6010E944D090E940C0D0BC00E94810DF5
:10366000B6CFC6010497813A910550F48C2D0E9483
:103670003708BD81B11509F4ECCD0E940C0DD0CDF9
:103680000E940C0DAFE3BCE91197F1F700C00000F8
:103690008C2D0E946213EDCFDC012D913C9102171D
:1036A000130741F4211009C01092B10380E00E9479
:1036B0008111CFCD211409F4CCCDFC01808585FD8D
:1036C000C8CDF4CFF9014485558566857785C90154
:1036D0000E94D907D60115968C9181FF9ECEC60116
:1036E0000E943D1180913C0490913D0408171907F8
:1036F00009F093CE10923D0410923C048ECE90912E
:103700001101892F8E7F90FF8160809311010E94AB
:103710001E118091110180FF45C00832110508F08B
:1037200069C00E31110508F076C0C80104974A97A8
:1037300088F58091240584FD2DC0D70115968C91C4
:10374000811509F4D6C08091510490915204892BBF
:103750008D7F811509F464C01092430410924204D5
:103760008091240581FD5CC060E0C8010E9455077E
:1037700060E0C8010E94FD13809151048D7F0E947A
:103780002D0982E00E9471044BCD8091110181606E
:1037900080931101F7018581811521F01092430476
:1037A00010924204D70115968C91F801E851FC471C
:1037B000E730F10508F060CEEB5BFF4C0C94262F50
:1037C000809111018E7FA1CF809111018F7E013EEA
:1037D000110531F0053E110531F4809111018F7D05
:1037E0008093110196CFC80190528115904308F043
:1037F00090CF42CE0933110558F40D32110518F45B
:103800000B32110539F68091240582FDC3CF95CF87
:1038100004361105F7CF8091240583FDBBCF8DCFF2
:1038200089E0F701A4E4B4E001900D928A95E1F7F4
:1038300010924704109246048091420490914304F0
:1038400008171907C9F52091240525FF35C03091C7
:10385000110131FF02C026FF2FC02091400430919A
:1038600041046301C21AD30A0E949F15C816D906E3
:1038700018F58091520481FF08C080911101806188
:103880008093110182E00E9493048091520485FF8D
:1038900008C08091110180628093110180E20E9432
:1038A000930460911101669561708091420490913A
:1038B00043040E94FD13B4CC80915104D090520473
:1038C000D82AD1FADD24D0F88D7F0E942D091093DB
:1038D0004304009342047092410460924004DD0C62
:1038E0006894D2F890911101997FD92AD092110150
:1038F00048CF40E0B301C8010E940F1491CC06E20A
:1039000021EE41EE6AE17CE70E94BD1589CC07E219
:1039100025EE45EE6BE17CE7F7CF06E221EE40EEC7
:1039200068E17CE7F1CF07E225EE44EE69E17CE750
:10393000EBCF06E221EE42EE6CE17CE7E5CF07E259
:1039400025EE46EE6DE17CE7DFCF08E221E045EEB3
:103950006EE17CE7D9CF20E0A5CD80914E048115A2
:1039600021F085E30E946B0888CE89E2FBCF073700
:103970002CE71207F9F008373CE7130731F19801FB
:10398000205E32452032310528F591113BC00F7180
:1039900081E090E0AC0102C0440F551F0A95E2F7A8
:1039A0008A01642F83E090E00E94BE2F802F0E9446
:1039B000BA0336CC81E0911551F00E94C00343E078
:1039C00062E081E00E9446042BCC82E0F4CF0E94AA
:1039D000CC03F5CF9115B1F00A355CE7150709F472
:1039E00097C008F06EC001309CE7190709F48EC03B
:1039F0000330ACE71A0709F483C00115BCE71B07C5
:103A000009F471C0F70187819085009709F484C09B
:103A10000E949605082FD92EF701B580C680C29462
:103A20009FE0C922809155048770811501F19B2C7C
:103A3000B114F1F08D2D807F803461F080E2800F31
:103A40008830A8F08D2D807E803221F4023078F00D
:103A5000C11469F080912E0582FF09C082E00E94A6
:103A60007104809155048770992493948111912C4D
:103A7000AD2CA2948FE0A822F8E0AF1609F489C11A
:103A800029E0A21608F090C034E0A31608F05BC04D
:103A90001D2D1F7042E0A41608F499C08D2D807F63
:103AA000803211F01295107F011509F4C7C0013062
:103AB00009F431C1B11409F43DC1C11409F4D8C0ED
:103AC0009AC00B35ECE71E0729F180912E050024E2
:103AD00082FF0394802D0C35FCE71F0709F092CF7D
:103AE0000E947C0B8FCF0E94C10D2FEF34E34CE07E
:103AF000215030404040E1F700C000000E94AA0978
:103B00006FEF7FEF80E090E00E94DC2F0E94E30DDA
:103B100081E0E6CF80E0E4CF8581C080D18081154F
:103B200069F0C6010E94750C182F682FC6010E940B
:103B3000DC03B601812F0E94580C6ACFC6010E9497
:103B40001204182FF6CF54E0A51609F405C1AA2DCA
:103B5000A850BB0B149710F40E94DE07802F9D2DF8
:103B60000E949603811114C21092300510922F0505
:103B70009114A9F08091550480FD11C0F7011582C0
:103B80008695869586950E94C003C7010E94AC1752
:103B9000809155048695869586950E94CC0360E0B9
:103BA000C7010E94E10C4DCB89E0A81609F461C160
:103BB00086E08A0D8F70823050F6023F09F069C1AD
:103BC0008D2D8F71B11062C10E94C003C0CF90E1F2
:103BD000D91610F01295107FB114B9F0111559F0E3
:103BE00080E2800F883010F0011109C0812F0E94FF
:103BF0008D040E940C0D802F0E946213A8CF80912B
:103C00005404812B80935404F4CF802F0E94810DA3
:103C1000111509F49CCF80E2800F883010F001115B
:103C200004C0812F0E94930406C010958091540413
:103C30008123809354040E940C0D89CF80912E051E
:103C400082FD12C0B11449F0111529F0812F0E9494
:103C50008D040E940C0D80E0CFCF80E00E94810D8A
:103C6000111509F474CFDDCFB11491F1C11004C066
:103C7000812F0E945E0D6BCFB1E0CB1211C08090FE
:103C80005104812F8821181709F461CF0E949A08E6
:103C90009093500480934F04812A8092510457CF0F
:103CA00080912505823008F452CFC81250CF812F61
:103CB0000E945E0D812F0E94170980915304912F5D
:103CC0009823191709F443CF812B809353043FCFD6
:103CD000C11012C0812F0E946F0D812F0E94170901
:103CE00080915304912F9823911509F430CF1095AA
:103CF0001823109353042BCF80912505823008F4AC
:103D000026CFE1E0CE1223CF80915204812381158A
:103D100009F41DCFDFCF80912B05B11421F08C1554
:103D200008F415CFA5CFC81608F011CF812F0E9437
:103D30006F0D0DCFC114D1F38091290590912A0503
:103D4000093321F080912705909128050E940F0BDF
:103D5000802F0E94810DFBCE8D2D869586958370D8
:103D6000811569F0813009F0F2CE802F9D2D93707E
:103D7000B11002C080E090E00E941108E8CE802FD0
:103D80009D2D9370B11002C080E090E00E94EB077F
:103D9000DECE8D2D8370811133C0B110D8CE402F6F
:103DA000429546954770440F440F802F8F70042E24
:103DB00001C0880F0A94EAF7202F207104FF07C082
:103DC0002FE030E001C0220F4A95EAF720953D2D03
:103DD000369536953370323071F0333051F0409172
:103DE0000705313029F0822B84230E94BA03AFCE1D
:103DF000842B822BFACF822B909107058927F5CF50
:103E0000B11459F1D0FEA3CE402F4295469547708C
:103E1000440F440F802F8F70042E01C0880F0A9426
:103E2000EAF7202F207104FF07C02FE030E001C027
:103E3000220F4A95EAF720953D2D36953695337039
:103E4000323091F0333071F040910805313049F053
:103E5000822B84230E94BD037ACE823008F477CE71
:103E6000D3CF842B822BF6CF822B90910805892704
:103E7000F1CF1D2D1F70B11429F0812F0E94C003B6
:103E8000802FF7CE802F0E946F0D812F0E94CC03D0
:103E90005ECE60F4003FB9F0013F81F0B11409F447
:103EA00072C0C110A8CE8D2D8F718ECE033FF9F058
:103EB000043FA1F780912E0582FD25C08D2D8F71C5
:103EC000B11421F381CE80912B05B11461F0C81695
:103ED00008F03DCE2D2D2F7181E090E001C0880FBC
:103EE0002A95EAF7C2CF8C1508F431CEF3CF80E0E3
:103EF000B11409F4AFCF81E09D2D9F7101C0880FEF
:103F00009A95EAF7A7CF80912505823048F1B11440
:103F1000C9F0909155049770943061F41092550453
:103F200010925704109256048D2D8F710E94CC036D
:103F3000912C12CEC816E0F763E08D2D8F710E9490
:103F4000FF08F6CFC81640F010925504109257049F
:103F50001092560464E0F1CF81E00E947104E8CF32
:103F6000B11431F063E08D2D8F710E94FF08EFCD09
:103F700081E00E947104F2E0CF1608F4E8CD82E0FF
:103F80000E947104E4CDC110D7CE8D2D8F717ECFEC
:103F9000B11419F0C110E8CDEBCDC110E5CD40E072
:103FA000D70115966C9115978D919C910E94C30C29
:103FB0008091260583FFD8CD80912F059091300503
:103FC000029709F0D1CD802F0E94BA14CDCDA0E088
:103FD000B0E0EDEEFFE10C943E2F809117038031AD
:103FE00008F049C080911603811509F444C0C091BE
:103FF000C80289E0D82E8091C7028C17E1F1EC2E1F
:10400000F12CDC9EE0011124FE01E753FD4F848179
:104010008115B1F1918180911203981331C0908183
:104020008091110398132CC08581811129C00281D0
:1040300013818091130390911403081B190B60E006
:1040400081E193E00E94E10C0E949F150817190777
:10405000B8F4809117038F70806180931703C15368
:10406000DD4F88818F708061888381E193E00E94B9
:10407000AC170E946704CDB7DEB7E7E00C945A2F67
:10408000E7012196C770B7CFAFE0B0E0EAE4F0E215
:104090000C94362F8C0186E0F801DE011A9601900F
:1040A0000D928A95E1F7D80115966C9015971496A4
:1040B0005C9081E1A82E83E0B82E809115038111D8
:1040C00018C0511499F0611409F4CBC1C8010E94C1
:1040D000AF0C811509F4C5C189E0F801A1E1B3E095
:1040E00001900D928A95E1F70E94E71FFF24F39457
:1040F00051C0F801C0807180E280F38060E081E10E
:1041000093E00E94E10CD0901603809113039091EC
:1041100014034701881A990A60E081E193E0D11401
:1041200009F444C10E94E10C0E949F15881699066B
:1041300008F0F7C05114D1F280911203D801119602
:104140009C91B0901703B0E1BB1608F0A1C0F62C0B
:10415000981325C090911103F801808198131FC016
:10416000209118033091190387819085281739070A
:10417000B1F4611078C08B2D8F708061809317032C
:1041800081E193E00E94AC1780911703D801169645
:104190008C93F12C8F2D2F96EFE00C94522F611001
:1041A00062C0E091C8028091C702AE2F99E0A813C7
:1041B00002C099E02AC02A2F30E09A9FD001112432
:1041C000A753BD4F11964C911197741207C04C9193
:1041D000C41204C015964C9141114DC1D9011196DC
:1041E000A770E5CF2E2F30E09E9FF0011124E753FA
:1041F000FD4F4181741206C04081C41203C0458145
:104200004111C7CFF9013196E7708E13EBCF8A8544
:104210009B850E94A00C292F22952F70903448F086
:104220002A5F2F702230C8F0C8010E94AC17FD2C05
:10423000B1CF9F70223038F0911551F0F80196817E
:10424000903130F4A7CF911519F0811509F4A2CF60
:10425000805E883008F49ECFE7CF803F08F49ACF85
:10426000815F8330F7CF80911703816080931703BC
:104270008091260581FD8DCF81E193E00E94AC17EE
:1042800089E0E1E1F3E0DF011D928A95E9F781CF52
:10429000981321C090911103D8018C9198131BC0E1
:1042A000209118033091190317968D919C911897BE
:1042B0002817390781F461100EC01696BC92C80108
:1042C0000E94AC1789E0F801A1E1B3E001900D92E2
:1042D0008A95E1F70BCFC8010E94AF0C811509F454
:1042E000C0C0611409F4BDC080911703803208F486
:1042F000F3CE80911103909112039A838983FC82FB
:10430000EB82809115038D831E82BF8280911803FA
:104310009091190399878887CE0101960E94AC1766
:10432000DBCED0901703B0E1DB1608F4A5CF511413
:1043300009F4DCCE90911203F801818198131AC020
:10434000909111038081981315C02091180330912A
:104350001903878190852817390761F461100AC015
:10436000D682C8010E94AC1789E0D5011D928A95BA
:10437000E9F7BCCEC8010E94AF0C811509F471C0E9
:10438000611409F46EC080911703803208F4A4CE42
:1043900080911103909112039A838983FC82EB82AE
:1043A000809115038D831E82DF82B0CF0E94E10CC5
:1043B0000E949F158816990608F057C0511409F4F9
:1043C00095CE611409F44DC090911203F8018181DA
:1043D00098133DC0909111038081981338C02091AB
:1043E000180330911903878190852817390779F5CB
:1043F000C0901303D090140360E081E193E00E9429
:10440000E10C8091260582FD5DCFEC18FD088091BE
:10441000210590912205E816F90608F053CF809106
:10442000170380FD4FCF803108F44CCFD80116968A
:104430008C931697982F907F903F09F440CF982F38
:10444000907F905F8F70892B16968C9338CFC80120
:104450000E94AF0C811140CE809117038160809340
:104460001703C8010E94AC1741CE89E0F5011192F3
:104470008A95E9F78ECE9091260590FF9ACEFCCED4
:10448000A2E1B0E0E6E4F2E20C94412F0A871B8738
:104490002C873D874E875F87688B798B8A8BCE010F
:1044A0000A960E944420811128C02091C7023091B1
:1044B000C80289E0FE013A96DE01119601900D9244
:1044C0008A95E1F78E858115C1F0822F90E00196E3
:1044D0008770992738171906D9F099E0929FD00173
:1044E0001124A753BD4FFE01319601900D929A956C
:1044F000E1F78093C7020E94670419E08091C80227
:104500009091C702891312C06296E4E00C945D2F6B
:104510000E94C10D1092C7021092C80289E0E1E129
:10452000F3E0DF011D928A95E9F7E7CF189FC001FC
:10453000112487539D4F0E944420811529F38091B7
:10454000C80290E00196877099278093C802D6CF61
:10455000EF92FF920F931F93CF93DF938091040507
:10456000E091EE01CDE0811131C0CDB7DEB7E6E0DC
:104570000C945B2FD1E0DE0FD093EE01EE2EF12CE8
:10458000CE9FF0011124E456FB4F84818115E9F0A0
:1045900087819085892B21F481859285019659F434
:1045A0000081118122813381448155816681778127
:1045B00080850E944022CE9DF001CF9DF00D1124F8
:1045C000E456FB4F148210925404ED2F80910405A1
:1045D000E81780F2109204051092EE01C6CFA4E015
:1045E000B0E0E5EFF2E20C94342F20919B04298394
:1045F00097E0992EEE24E394F12C3DE0332E44E035
:10460000542E6624639480919A049981891308C07A
:104610000E94A8220E947B072496E1E10C94502F6F
:104620007981672F70E07C836B83FB01EE0FFF1FA6
:10463000E057FB4F80819181989ED001999EB00DEB
:104640001124FD01E85AFB4FFA83E98324812111EB
:104650005BC070900405ECE9F4E040E050E0812C90
:10466000471508F04FC0A384B484A981BA81CD90C6
:10467000DC900FEF1FEF412C242D30E0B601640DCC
:10468000711D640D711DDB016D917C9161157105CA
:1046900039F0A616B70609F0980143948901ECCFCA
:1046A0000F3F1007D1F1B701002E01C0660F0A9429
:1046B000EAF7862AB701042C02C0660F771F0A9416
:1046C000E2F79B01215031098216130629F5349E29
:1046D000F001359EF00D1124E456FB4F989ED00159
:1046E000999EB00D1124A85ABB4F12962D913C9162
:1046F0001397308727835482108211829287818793
:1047000015966C920E948C078B819C8101969A83EE
:1047100089838370898377CF14824F5F5F4F3D9683
:104720009FCF1092060510920505109212018091FC
:104730009A0480939B040E947B070E94A8220895FC
:10474000A0E2B0E0E6EAF3E20C94332F4B8B5C8BF3
:104750006D8B7E8BC82E8F8BD92E988F182F992E0C
:10476000811549F080912F05909130050196909325
:10477000300580932F05911010925404188A198ADD
:104780001A8A86E0FE017396DE011A9601900D9258
:104790008A95E1F780912E0582FF21C080910B055B
:1047A00090910C05892BD9F00E949A08209156040B
:1047B00030915704821B930B20910B0530910C050F
:1047C0008217930738F08091550482FD03C082E080
:1047D0000E9471040E94A60881110E949B04111579
:1047E000B1F0CE86DF8661E0CE010A960E94E10C30
:1047F00061E0CE010A960E94E10C5C0180352CE755
:10480000920791F4911419F181E080931201CE8600
:10481000DF860A851B852C853D85A60168897989F7
:104820008A890E944022CCC081353CE7930729F455
:10483000911469F00E949123EACF82359C4739F4A4
:10484000911429F0809112018111F4CFDDCF58E548
:10485000E52E54E0F52E812C412C512CD7016D9181
:104860007C91BFEFB98FBA8F80E0282F30E0FB0139
:10487000E80FF11DE80FF11D4081518141155105EF
:1048800049F0A416B50611F0298D3A8D8F5F3A8F45
:10489000298FEBCFE98DFA8D10E0319609F44CC0E9
:1048A000D70114964C9110911201411110E0F701BB
:1048B00035802681911409F409C1111509F406C146
:1048C00060901F0570902005311015C041E050E048
:1048D000098C02C0440F551F0A94E2F7242B26834B
:1048E00020919804309199042615370520F4709290
:1048F00099046092980421E030E0A90102C0440FBD
:10490000551F8A95E2F7CA010197D70116962C9197
:104910002817190689F480910505909106050097DE
:1049200009F452C00E949B096816790608F04CC031
:1049300081E0F701848311E0812AFFEF4F1A5F0ABB
:1049400027E0E20EF11C38E04316510409F086CF4F
:10495000911409F418C1811409F415C10E949A0830
:10496000909306058093050580910405883040F5F5
:1049700091E0980F9093040599E0FE013A96DE01CC
:10498000119601900D929A95E1F7CD82DE824DE06D
:10499000849FC001112484569B4F29E0FE0131966B
:1049A000DC0101900D922A95E1F72FEF3FEFDC013A
:1049B0001A963C932E9319971C96BC92AE921B9715
:1049C000A096E2E10C944F2F90919B0430919A04B1
:1049D000892FE0E0F0E027E0931709F447C0692E43
:1049E000712CD301AA0FBB1FA057BB4F4D915C91F7
:1049F0005C8F4B8F249FD001259FB00D1124A85AA6
:104A0000BB4F6D917C9178A36F8F00E060E070E008
:104A1000AF8DB8A1A70FB11DA70FB11D2D903C9070
:104A200021143104E1F0D7010D90BC91A02DBE8F6F
:104A3000AD8F60E007C0A1E02416350609F0A0E0C4
:104A40000A2B6F5FAD8DBE8DA60FB11DA60FB11DD8
:104A50004D915C914115510571F77F5FD9CF0115DB
:104A600091F16717C0F491E0F701948380939B0460
:104A7000EE15FF0509F460CF832F90E0FC01EE0FE7
:104A8000FF1FE057FB4F51824082019683709927A8
:104A900080939A0451CF4B8D5C8D249FF001259F0C
:104AA000F00D1124E85AFB4F51E05483EE15FF0539
:104AB000E9F2981302C08F5F8370A3014F5F5F4FCD
:104AC000942F937089CFE0E0F0E0F7CF30E0311021
:104AD00022C061E070E002C0660F771F8A95E2F79E
:104AE000CB0101972817390781F010E081E090E0B1
:104AF000098C02C0880F991F0A94E2F7982F9095AD
:104B0000F70186818923868317CF411579F3C20186
:104B10000E948C07EACFA901098C02C055954795E0
:104B20000A94E2F7C901019782239323892B41F567
:104B300040FF26C0D70112968D919C91892BD9F008
:104B400087E0FE013196DF011D928A95E9F70E9408
:104B50009A089C018B839C8384E08D83F70192816A
:104B60008381792F9887898709811A8144E05E8142
:104B70006F810E944022D70115961C92132DB6CF4B
:104B8000142F1170B3CF90919B0480919A049817C1
:104B900039F00E94EF22B1E08B1609F411CF37CE25
:104BA0000E94A82210920605109205050E947B071C
:104BB000F2CFA6E0B0E0EFEDF5E20C94412F0E94B9
:104BC0009A088C0180919B0290919C02801791071A
:104BD00079F019821A820E949A08BC0149815A818F
:104BE00080E090E00E94A02310939C0200939B021F
:104BF0002696E4E00C945D2FA6E0B0E0E2E0F6E259
:104C00000C94432F9C019093980280939702211556
:104C100080E2380738F4C9010E94E7132696E2E0E3
:104C20000C945F2F80EF89838A830E949A088160A9
:104C3000BC0149815A8181E091E00E94A023EECF1E
:104C4000A6E0B0E0E6E2F6E20C94432F9C019093DC
:104C5000980280939702211580E2380738F4C90141
:104C60000E94AB0D2696E2E00C945F2F80EF8983C3
:104C70008A830E949A088160BC0149815A8181E03F
:104C800090E00E94A023EECFCF93DF93D82FC92FBF
:104C90000E94FC2580912705909128050E940F0B0A
:104CA0008D2F9C2F0E942026DF91CF9108950F9386
:104CB0001F93CF93DF938C01862F6DE273E00E94E8
:104CC0008A15892BA9F4C0912D03D0912E0320972A
:104CD00079F0F8018281833051F4CE010E9444269C
:104CE000CE010E944426CE010E94442601C0D8F77E
:104CF000DF91CF911F910F9108950F931F93CF9341
:104D0000DF938C01EB016DE273E08C2F0E948A151A
:104D1000892B09F05AC0FE01FF27D80112968C9109
:104D20001297E05AFD4F8130A9F415968C9182FDBF
:104D300051C080FF4FC082E0808380912F0390910B
:104D400030030097B9F480912D0390912E030097C2
:104D5000E1F110C08230B9F515968C9182FD28C022
:104D600080FD0BC083E080838091310390913203FA
:104D7000009701F10E94FC2528C084E08083809187
:104D80003303909134030097A9F780912D039091FC
:104D90002E03009711F10E94442680912F039091D9
:104DA0003003009739F780912D0390912E03E2CFC5
:104DB00085E0808380912D0390912E03009729F048
:104DC0000E944426F0CF86E08083DF91CF911F912F
:104DD0000F91089581E08083B6CF80912F03909149
:104DE0003003B5CF0F931F93CF93DF938C01EB016B
:104DF0006DE273E08C2F0E948A15892BA1F48091BB
:104E00002705909128050E940F0BDD27C05ADD4F22
:104E10008881F801128218828330F1F048F48130E1
:104E200059F0823081F0DF91CF911F910F91089559
:104E30008430B9F08530B9F780912D0390912E031D
:104E4000009789F306C080912F039091300300975B
:104E500099F30E942026E7CF80913103909132038D
:104E6000F6CF8091330390913403009791F720910E
:104E70002D0330912E0380912F0390913003211543
:104E80003105F1F2009729F7C901E3CFCDB7DEB7BD
:104E9000AE970FB6F894DEBF0FBECDBF85B7806862
:104EA00085BF85B7806885BF84B7877F84BF0FB60D
:104EB000F894A895809160008861809360001092BA
:104EC00060000FBE80E890E00FB6F8948093610018
:104ED000909361000FBE81E080930F0189E996E015
:104EE0009093A9018093A8010E94C3060E94C71451
:104EF0000E940B150E94030C0E94650A0E94B40ACE
:104F00008091E20084608093E20078948091960220
:104F1000811599F08091E9001091EC008F70179540
:104F200011271795182B1092E9008091E80083FD56
:104F30000E944E0E1F701093E90082E084BD93E042
:104F400095BD9AEF97BD80936E000E94F30C81117E
:104F500002C00E946C1286E30E949B0682E30E94BC
:104F60009B0685E30E949B0684E30E949B060FE25A
:104F700011E0D8018D918D018F3F11F00E949B06A9
:104F8000B1E00B331B07A9F788E0ECE8F2E0DF01A2
:104F9000282F1D922A95E9F7E8E6F2E0DF011D923D
:104FA0008A95E9F780E090E00E94A82F853E9E4F09
:104FB00021F40E94F30C811102C00E947C1282E055
:104FC00090E00E94A02F8093720284E090E00E9403
:104FD000A82F90932E0580932D050E944E16EFEF7B
:104FE000F6E721E0E150F0402040E1F700C000008A
:104FF0000E944E1680918C0280FF08C06FEF7FEFF9
:1050000080E090E00E94DC2F0E94AA0983E090E0FB
:105010000E94A02F0E94BA0380E091E09093BE020C
:105020008093BD028091960210E4853009F492C00D
:105030000E944E16A3E7AA2EA2E0BA2E0CE812E0B8
:10504000D801F501219131918D919D914BE752E06D
:105050004E175F0709F488C02817390799F3FCE851
:105060006F2EF2E07F2E912CD301ED90FD903D014B
:10507000F501819191915F018E159F0579F19C0158
:105080002E253F253EA72DA7812CCC24C394D12CBF
:105090008DA59EA58C219D21892BB9F089829A82AC
:1050A0000E949A089C838B8331E03D8391E09701B5
:1050B0002C213D21232B09F490E09E8349815A81C4
:1050C0006B817C818D810E94A0238394CC0CDD1C9C
:1050D0004CE08412DDCFF501F292E292939454E019
:1050E0009512C2CF0E94410945C08091960284303A
:1050F00019F11092700248E150E00FB6F894A895AB
:10510000409360000FBE1093600083B7817F84607E
:1051100083BF83B7816083BF7894889583B78E7F80
:1051200083BF0FB6F894A895809160008861809342
:105130006000109260000FBE0E944E16ECE8F2E094
:1051400081919191892B09F0B8C484E992E08E177E
:105150009F07B1F780919602853009F4C6CF0E946F
:10516000C10D0E94DE0764CF2817390709F077CFF9
:105170000E94D9258091B4039091B503892B09F43D
:105180003EC04091830250918402609185027091EB
:1051900086022FB7F89480917B0290917C02A091B7
:1051A0007D02B0917E022FBF841B950BA60BB70B1F
:1051B00040917F0250918002609181027091820241
:1051C00084179507A607B707D0F08091B403909194
:1051D000B5030E94E7131092B5031092B403109226
:1051E000830210928402109285021092860210921D
:1051F0007F02109280021092810210928202E0904F
:105200003C04F0903D04E114F10439F180913E0436
:1052100090913F040E949B098BA79CA7C7010E9405
:105220009F15ABA5BCA58A179B07B8F420913C0439
:1052300030913D04C9019927287F3327232B09F09A
:1052400094C064E0880F991F6A95E1F784549C4FDD
:10525000FC01258122FF0E945A11809112018115C3
:1052600001F180910505909106050097D1F00E940B
:105270009B0920919804309199042817390788F4E4
:1052800090919B0480919A04981709F471C00E9430
:10529000EF22109299041092980410920605109231
:1052A00005058091240580FF1DC08091110182FFBA
:1052B00019C00E949A081C018091400490914104F9
:1052C0009101281B390B80910A0190910B0128173D
:1052D000390740F041E0B1018091420490914304CC
:1052E0000E940F140E94DE0790918702891721F017
:1052F000809387020E94410980919602843009F0D0
:1053000091CE83E08093E9008091E80082FF8ACE0D
:105310008091E80090E085FF05C00E94340A811565
:1053200081F191E08091E8008B778093E8009115FE
:1053300009F478CEE0909902F0909A02E981E114A4
:10534000F104F1F1EE3F09F05FC08A81833020F073
:105350008550833008F058C0EA81EE3008F054C020
:10536000F0E0E45BFF4C0C94262F80E090E070CFDF
:105370000E94A82210920605109205050E947B0744
:1053800090CF50E2E52EF12C9E012F5F3F4F690137
:105390008091E80085FD0AC08091E8008B778093BA
:1053A000E8000E94340A811599F3BBCF8091F10087
:1053B000D6018D936D01B1E0EB1AF10849F7B1CF39
:1053C000E43150F4E11559F0E150E33140F4F0E0FC
:1053D000E65AFF4C0C94262FEE3F09F4BDCF8FEF19
:1053E00098C31A8289E08B830FC08A818230A9F02A
:1053F0008330E1F0813099F70E9441090E942C2FFF
:105400006B837C838D839E8340E250E0BE016F5F9F
:105410007F4F82E00E941D0B05CE87E290E00E9444
:10542000A02F1B821C821D828E83EECF809194025E
:1054300090919502892B41F3FE01319684E992E027
:10544000D8012C9111963C910E5F1F4F328323831C
:10545000329680179107A1F7D7CF8A81823009F061
:10546000BECF6B817C818D819E810E942C2F87E233
:1054700090E00E94BE2FC8CF4C816B818A810E9430
:10548000290C9827892798279E838D83BDCF2D814E
:105490003E813227232732274C816B818A810E94EB
:1054A000930BB2CF0E94E011AFCF80E18A83ACCFE3
:1054B00081E08A8384E497CF8C81E82EF12C8D31B2
:1054C00008F0A2CF0A811B81102701271027E00EC8
:1054D000F11E6E01B5E0CB0ED11C0E151F0509F4AF
:1054E00093CF80E00434E1E01E0728F4C80184541F
:1054F0009D4F0E94A02FD6018D936D010F5F1F4F0E
:10550000ECCF8091940290919502892B09F47CCF85
:105510008C81C82ED12C8D3108F076CF0A811B8169
:10552000102701271027FE0131967F01CE0EDF1EC6
:10553000EC14FD0409F468CF0434F1E01F0740F4D3
:10554000D70114966C91C80184549D4F0E94BE2FC0
:105550000F5F1F4FBFEFEB1AFB0AEACF0E94BA0B97
:1055600053CF84E0A3CF8C81E82EF12C8D3108F04D
:105570004BCF0A811B81102701271027E00EF11E57
:105580006E01E5E0CE0ED11C0E151F0509F43CCFCF
:1055900080E00038F1E01F0720F4C80188960E94DF
:1055A000A02FD6018D936D010F5F1F4FEDCF8C8122
:1055B000E82EF12C8D3108F027CF0A811B811027AE
:1055C000012710270038B1E01B0708F01DCF80E845
:1055D00091E0801B910B8E159F0508F415CF8091EB
:1055E000940290919502892BE1F54801E8E28E0E34
:1055F000911C00FBCC24DD24C0F800FF0DC0C801C5
:1056000087960E94A02F9D81892798278927811539
:105610009C4711F48FEF8D83C701800F911F5701B5
:1056200080FF17C021E0A21AB10845E0642E712C5A
:105630006C0E7D1E6A0C7B1CC4018E0D9F1D0E948A
:10564000A02FD3019C9181159C4719F48FEFF30192
:105650008083FE013196EC0DFD1D2FEFCA14DB0493
:1056600030F0FE0131966F01EE0EFF1E1CC09481DA
:10567000858181159C4711F42483258342E0C40E63
:10568000D11C3296EBCF003851E0150738F4D60123
:1056900014966C91C80188960E94BE2F0F5F1F4F11
:1056A000BFEFCB1ADB0AEC14FD0469F7ADCE809195
:1056B000940290919502892B09F4A6CE40E250E025
:1056C000BE016F5F7F4F82E00E941D0BFFEF21EE56
:1056D00034E0F15020403040E1F700C0000094CCAD
:1056E00088E0E3E1F1E0DE01919601900D928A9568
:1056F000E1F7FE0132968FE1DF011D928A95E9F70D
:1057000086E0898388E07F96DE01159601900D92F0
:105710008A95E1F779CE80E8898381E08A831B82CC
:105720001C8272CE8B819C81092E000CAA0BBB0BB4
:1057300035E0880F991FAA1FBB1F3A95D1F7AC011E
:10574000BD01405E5F4F6F4F7F4F481759076A0793
:105750007B0708F459CE8038E1E09E07A105B1052A
:1057600008F052CE4138F1E05F076105710520F085
:1057700040E851E060E070E0481B590BBC016A5FF3
:105780007A4FCE0101960E946A2F3ECE4AE150E048
:105790006FEF70E0CE0107960E94892F80919402EE
:1057A0008983EA821B821C8282E08D8386E03CCE64
:1057B00081E090E090939A028093990282E390E0D6
:1057C00090938B0280938A020E949A089093890298
:1057D0008093880219CEE114F10471F110918C02CA
:1057E0000091900280918802909189020E949B0909
:1057F0008536910540F106FF26C010FF24C00E94A7
:105800009A08909389028093880280918A029091ED
:105810008B02019790938B0280938A02892B61F40B
:1058200010929A021092990281E090E09093950272
:1058300080939402E12CF12C809194028983EA8276
:1058400080918A02D0CD82E390E090938B02809386
:105850008A02F2CF1092950210929402D5CD0B815C
:105860001C8140E250E06FEF70E0CE0101960E9493
:10587000892F26E734E042E050E080E090E0F90133
:10588000659174910617170740F4DE0111968A0F8F
:105890009B1FFC0171836083CA01F4E02A3F3F072C
:1058A00009F4B2CDAC014E5F5F4F245F3F4F4132F0
:1058B000510528F3A9CD2B813C8186E794E0FC01BA
:1058C000459154914217530709F414C10C9645E0D1
:1058D00086309407A1F783CD8B819C8106E714E085
:1058E000F801259134918217930709F414C1045FDC
:1058F0001F4FF5E006301F0799F744244A94542CB3
:1059000025C10E941B0E80CDEB81E73008F07CCDD5
:10591000F0E0E359FF4C0C94262FFE0134968DE104
:10592000DF011D928A95E9F788E089838A835BCD40
:105930008C819AE0F92E8E010F5D1F4FF8012F2DFB
:1059400011922A95E9F7B8010E948A158983F80116
:10595000DE01129601900D92FA94E1F755CD1C816B
:105960008AE0FE013596DE01919601900D928A95AE
:10597000E1F789A19AA10E94B4069AA389A38BA1F9
:105980009CA10E94B4069CA38BA38DA19EA10E9402
:10599000B4069EA38DA38FA198A50E94B40698A7D4
:1059A0008FA38FEF183068F43AE0139FB0011124F1
:1059B00064537E4F4AE050E0CE0181960E94E22F70
:1059C00080E089830E94C3061FCD2C816AE0CE014E
:1059D0008196DC01E62F1D92EA95E9F7283008F060
:1059E00046C0629FB0011124645E7D4F4AE050E0E2
:1059F0000E94902F80E089838AE0FE01B196DE014B
:105A0000129684CE1C818AE0FE013596DE019196C5
:105A100001900D928A95E1F789A59AA50E94B40696
:105A20009AA789A78FEF183068F4FAE01F9FB0019A
:105A30001124645E7D4F4AE050E0CE0181960E94C1
:105A4000E22F80E089830E94C714DECC2C816AE0BB
:105A5000CE018196DC01E62F1D92EA95E9F7283008
:105A600030F4629FB001112464597D4FBFCF8FEF96
:105A7000C2CF1C818AE0FE013596DE01919601902D
:105A80000D928A95E1F78BA19CA10E94B4069CA37C
:105A90008BA38FEF183068F4FAE01F9FB001112438
:105AA00064597D4F4AE050E0CE0181960E94E22F7A
:105AB00080E089830E940B15A7CC8091710281152B
:105AC00009F448CB90E199BDA2E1A9BD09B400FE5B
:105AD000FDCF8091D8008F7D8093D8008091E00029
